:020000040800F2
:100000005808002089010008FF170008A5150008FE
:10001000FD170008E7020008051B000800000000AB
:1000200000000000000000000000000003180008AD
:10003000E902000800000000011800080518000887
:10004000A3010008A3010008A3010008A301000800
:10005000A3010008A3010008A3010008A3010008F0
:10006000A3010008A3010008A3010008A3010008E0
:10007000A3010008A3010008A3010008A3010008D0
:10008000A3010008A3010008A3010008A3010008C0
:10009000A3010008A3010008A3010008A3010008B0
:1000A000A3010008A3010008A3010008A3010008A0
:1000B000A3010008A3010008A3010008A301000890
:1000C000A3010008A3010008A3010008A301000880
:1000D000A3010008A3010008A3010008A301000870
:1000E000A3010008A3010008A301000800F002F822
:1000F00000F03AF80AA090E8000C82448344AAF188
:100100000107DA4501D100F02FF8AFF2090EBAE885
:100110000F0013F0010F18BFFB1A43F0010318473B
:10012000D81A0000F81A0000103A24BF78C878C125
:10013000FAD8520724BF30C830C144BF04680C60ED
:10014000704700000023002400250026103A28BF35
:1001500078C1FBD8520728BF30C148BF0B60704739
:100160001FB51FBD10B510BD00F058F81146FFF7C0
:10017000F7FF01F0D9FC00F076F803B4FFF7F2FFC7
:1001800003BC00F07DF8000009488047094800479B
:10019000FEE7FEE7FEE7FEE7FEE7FEE7FEE7FEE737
:1001A000FEE7FEE704480549054A064B7047000094
:1001B00071180008ED0000085802002058080020BF
:1001C00058040020580400204FF0000200B51346E8
:1001D00094469646203922BFA0E80C50A0E80C5067
:1001E000B1F12001BFF4F7AF090728BFA0E80C5018
:1001F00048BF0CC05DF804EB890028BF40F8042B11
:1002000008BF704748BF20F8022B11F0804F18BF7D
:1002100000F8012B7047704770477047754600F033
:100220002BF8AE4605006946534620F00700854688
:1002300018B020B5FFF7B6FFBDE820404FF000062C
:100240004FF000074FF000084FF0000B21F00701BE
:10025000AC46ACE8C009ACE8C009ACE8C009ACE801
:10026000C0098D46704710B50446AFF300802046A4
:10027000BDE81040FFF781BF00487047F40100203F
:1002800001491820ABBEFEE72600020070470000BF
:1002900070B5044600688168C943C90717D18168F1
:1002A00021F00101816000F079FA05460AE000BF03
:1002B00000F074FA401B022804D920688068C0430B
:1002C000C00706D020688068C043C007F0D0002077
:1002D00070BDA06A40F01000A062E06A40F001002A
:1002E000E062012070BDFEE770470000F8B5002411
:1002F000009490F824202546012A12D0012280F88B
:1003000024204A681F23072A0DD20668776B521EE5
:1003100002EB820293409F430B6893401F43776335
:1003200019E00220F8BD06680D2A0AD2376BD21FE9
:1003300002EB820293409F430B6893401F43376355
:1003400009E0F76A0D3A02EB820293409F430B6883
:1003500093401F43F7620A68072306680A2A0AD3F4
:10036000F7680A3A02EB420293409F438B6893403E
:100370001F43F76008E0376902EB420293409F4356
:100380008B6893401F4337610A68102A01D0112AF5
:1003900020D1124B02689A4217D193681B0219D4DC
:1003A000936843F4000393600968102912D10C4943
:1003B0000C4A0968B1FBF2F101EB8101490000E050
:1003C000491E00910029FBD104E0816A41F020011F
:1003D0008162012480F824502046F8BD00240140A9
:1003E0000C00002040420F002DE9F0414FF00007C3
:1003F00004003D467ED0A06A002628B9E66284F853
:100400002460204600F07EF82046FFF741FFA16AF5
:10041000C90600D420B1A06A40F01000A06269E0D3
:10042000A16A21F4885141F00201A1626268E16988
:10043000237B0A4347EA43010A43A1684FF48077CC
:10044000B94209D0012907D05FF0000194F814C027
:10045000BCF1010F02D00AE03946F7E7F3B1A36A15
:1004600043F02003A362E36A43F00103E3622368DD
:10047000D3F804C02CF4694C4CEA010CC3F804C056
:1004800021688B68DFF870C003EA0C0313438B60AC
:10049000A168B9420BD0012909D00CE0DFF85CC09B
:1004A000A3690CEB43330B4343F40061DFE7218A7C
:1004B0000D05A5F580152168CB6A23F470032B4345
:1004C000CB62216889680E4B1940914208D1E662DF
:1004D000A16A21F0020141F00101A162BDE8F081B1
:1004E000A06A20F0020040F01000A062E06A40F034
:1004F0000100E0620120F1E7FDF7E1FF00E0FFFF0E
:10050000FE0E1FFF10B586B00021009101910291EF
:1005100003911A4C03681A4903221A48A34211D1C5
:100520008B6943F400738B618B6903F4007304934C
:100530008B6943F004038B61896901F00401049124
:10054000012113E0104CA34215D18B6943F4806361
:100550008B618B6903F4806304938B6943F004031C
:100560008B61896901F0040104910221CDE9001237
:10057000694600F01DF806B010BD000000240140DF
:1005800000100240000801400028014070B50446F8
:1005900000F004F90546601C02D0044800780444C9
:1005A00000F0FCF8401BA042FAD370BD0000002010
:1005B0002DE9F84FDFF8B8910024A9F1040B234688
:1005C0000F2709F1040AABF1040EC9E00125A5408B
:1005D0002A40AA427DD1674ED1F804C0ACEB060890
:1005E000B44532D014DCBCF1030F3AD009DCBCF1C5
:1005F000000F2AD0BCF1010F1CD0BCF1020F31D189
:100600001DE0BCF1110F17D0BCF1120F2AD119E077
:10061000B8F5881F19D006DCB8F5803F15D0B8F5BD
:10062000801F1FD111E0B8F5001F0ED0B8F5041FD0
:1006300018D10AE0CB6815E0CB681B1D12E0CB682F
:1006400008330FE0CB680C330CE08B682BB1012B27
:100650004FF0080303D0456104E0042302E0056184
:1006600000E00023FF2A01D8064601E000F104065D
:100670004FEA840501D9A5F12005D6F8008007FAD4
:1006800005FC28EA0C0803FA05F548EA0508C6F84F
:1006900000804D68ED0062D5374DAE6946F0010629
:1006A000AE61AD6924F0030605F001050095334DF8
:1006B00006EB050CDCF80850A607360F07FA06F81B
:1006C00025EA0805DFF8B880404503D14FF000085F
:1006D00017E044E0DFF8AC80404502D14FF001085C
:1006E0000FE0DFF8A480404502D14FF0020808E097
:1006F000DFF89880404502D14FF0030801E04FF049
:10070000040808FA06F848EA0508CCF808804D689D
:10071000D9F80060ED024D4601D5164300E096433E
:100720002E604D68DAF80060AD02554601D51643DB
:1007300000E096432E604D68DBF80060AD035D4637
:1007400001D5164300E096432E604D68DEF8006048
:10075000ED03754601D5164300E096432E60641CF8
:100760000D682A46E5407FF431AFBDE8F88F000000
:100770000804014000001110001002400000014078
:1007800000080140000C014000100140001401402D
:100790000AB1016170470904FBE700000148806865
:1007A000704700000000002070B5040025D094F8C8
:1007B0003D00002520B984F83C50204600F0B8F8F0
:1007C000242084F83D002068016821F001010160C7
:1007D0002068016841F4004101602068016821F44B
:1007E0000041016000F072FA4D4A6168914201D8FF
:1007F0004C4900E04C49884201D2012070BD4B4970
:100800002368B0FBF1F15E6826F03F060E435E60A0
:100810006368934206D94FF4967359434FF47A7341
:10082000B1FBF3F12368491C1E6A26F03F063143F1
:1008300019626168914210D84900401EB0FBF1F284
:10084000521CC2F30B02042A01D2042022E0B0FBA6
:10085000F1F0401CC0F30B001CE0A268F2B301EB06
:10086000C10303EB0116431EB3FBF6F35B1C43F419
:1008700080431B0549D092B301EBC10202EB011189
:10088000401EB0FBF1F0401CC0F30B0040F4804070
:1008900040F400402168CA694CF6FF739A43104344
:1008A000C861D4E9071001432068026822F0C00241
:1008B00011430160D4E9030101432068826848F2D2
:1008C000FF339A4311438160D4E90501084321684D
:1008D000CA6822F0FF021043C86001E00EE016E093
:1008E0002068016841F0010101602564202084F83E
:1008F0003D00256384F83E50002070BD01EB4106A9
:10090000431EB3FBF6F35B1CB3E70120C2E701EB28
:100910004101401EB0FBF1F0401CC0F30B00B7E7F3
:10092000A086010080841E0000093D0040420F00A7
:1009300010B586B0002100910191029103910068E9
:100940001349884222D1134CA06940F00800A061ED
:10095000A069694600F0080004904FF440700090D0
:1009600012200190032003900B48FFF721FE0B4853
:10097000416841F0E06141F002014160E06940F40A
:100980000010E061E06900F40010049006B010BDB2
:100990000054004000100240000C014000000140E3
:1009A000024881680278114481607047000000208D
:1009B000074810B5016841F010010160032000F004
:1009C00067F80F2000F006F800F024F8002010BDB2
:1009D0000020024070B50D4D04464FF47A7128781E
:1009E000B1FBF0F00A490968B1FBF0F000F0D6FB6A
:1009F00048B9102C07D200222146501E00F028F8DA
:100A000000206C6070BD012070BD0000000000205F
:100A10000C0000200C4808B5816941F0010181619A
:100A2000816901F001010091C16941F08051C1610A
:100A3000C06900F0805000900448416821F0E061F6
:100A400041F00071416008BD00100240000001400B
:100A5000F0B40E4B1B680C46C3F30223C3F1070529
:100A6000042D00D90425191D072901D2002300E017
:100A7000DB1E012606FA05F1491E214099409E40E1
:100A8000761E16403143F0BC01F03DB80CED00E09D
:100A9000064900F0070208684FF6FF03184040EAD5
:100AA0000220034A10430860704700000CED00E08C
:100AB0000000FA052DE9F84305460078354CC007DB
:100AC00054D0E0690026C00008D4E06940F08050AE
:100AD000E061E069012600F0805000902E48016836
:100AE000C90512D40168804641F480710160FFF7A6
:100AF00055FE074605E000BFFFF750FEC01B642807
:100B000023D8D8F80000C005F6D5206A10F440704C
:100B100021D0A98801F4407181421CD0206A1F496C
:100B2000012220F440700A6000220A602062C0079F
:100B300011D0FFF733FE074641F2883808E000BFC6
:100B4000FFF72CFEC11B414502D90320BDE8F88305
:100B5000206A8007F4D5206A696820F44070084351
:100B600020621EB1E06920F08050E06128788007A3
:100B700005D56068A96820F4404008436060287883
:100B8000C00605D56068E96820F48000084360600D
:100B90000020DBE7001002400070004040044242A9
:100BA0002DE9F0470F46050061D0434E306800F054
:100BB0000700B84209D2306820F00700384330609F
:100BC000306800F00700B84251D128683B4C8107DB
:100BD00012D5400703D5606840F4E0606060287873
:100BE000000703D5606840F4605060606068A968E1
:100BF00020F0F000084360602878C00728D06868BB
:100C0000012810D02168022810D0890700292EDA87
:100C1000616821F0030101436160FFF7BFFD804679
:100C200041F288390DE021688903EFE78901EDE79A
:100C3000FFF7B4FDA0EB0801494502D90320BDE848
:100C4000F0876068696800F00C00B0EB810FEFD1AD
:100C5000306800F00700B8420BD9306820F0070078
:100C600038433060306800F00700B84201D00120FE
:100C7000E5E72878400705D56068E96820F4E0607A
:100C8000084360602878000706D56068296920F469
:100C9000605040EAC100606000F038F86168084ABE
:100CA000C1F30311515CC84006490860064800685A
:100CB000FFF790FE0020C2E7002002400010024033
:100CC000DE1B00080C000020040000200448054939
:100CD00000684968044AC1F30221515CC84070476A
:100CE0000C00002000100240EE1B000804480549DB
:100CF00000684968044AC1F3C221515CC84070478A
:100D00000C00002000100240EE1B00080E4A516843
:100D10000E4801F00C03042B11D0082B0FD10C4806
:100D2000C1F38343C903C05C0AD55168084AC1F3C3
:100D30004041921E515C054A5043B0FBF1F07047B0
:100D400004494843704700000010024000127A0036
:100D5000CE1B000800093D002DE9F84F040070D0BB
:100D60002078C04DC00749D06868C0F381000128D1
:100D700007D06868C0F38100022809D16868C00301
:100D800006D52868800339D560680028E7D035E0AB
:100D90006068B0F5803F0BD010B1B0F5A02F11D036
:100DA000286820F480302860286820F4802002E041
:100DB000286840F480302860606890B1FFF7EEFC4E
:100DC00006460AE0286840F480202860F0E700BF6B
:100DD000FFF7E4FC801B642873D828688003F7D5EC
:100DE0000CE0FFF7DBFC064605E000BFFFF7D6FC92
:100DF000801B6428F0D828688003F7D420789A4EA6
:100E000080074FF001094FF0000839D5686810F0ED
:100E10000C0F07D06868C0F38100022809D1686808
:100E2000C00306D42868800714D52069012808D19A
:100E300010E02069B0B1C6F80090FFF7AFFC07469C
:100E400005E00AE1FFF7AAFCC01B0228C4D8286805
:100E50008007F7D52868616920F0F80040EAC100F2
:100E600028600DE0C6F80080FFF798FC074604E014
:100E7000FFF794FCC01B022823D828688007F7D40A
:100E8000207800072CD57948A169D9B1C0F8009025
:100E9000FFF784FC074604E0FFF780FCC01B022834
:100EA0000FD8686A8007F7D571484FF4FA51006887
:100EB000B0FBF1F0009000BF0098411E0091FAD203
:100EC0000EE080E0C0F80080FFF768FC074604E011
:100ED000FFF764FCC01B022875D8686A8007F7D446
:100EE0002078400760D5E8690027C00008D4E86989
:100EF00040F08050E861E869012700F080500090E0
:100F00005C480168C90513D40168834641F48071C7
:100F10000160FFF743FC824606E000BFFFF73EFC9E
:100F2000A0EB0A0064284ED8DBF80000C005F5D518
:100F3000E06801280AD008B1052813D0286A20F0FB
:100F400001002862286A20F0040002E0286A40F0CC
:100F500001002862E06841F2883B98B1FFF71EFC6F
:100F600082460BE0286A40F004002862EEE700BFEA
:100F7000FFF714FCA0EB0A0159455AD8286A8007EC
:100F8000F6D50CE0FFF70AFC824605E0FFF706FC09
:100F9000A0EB0A0159454CD8286A8007F6D41FB146
:100FA000E86920F08050E861E06988B36968C1F3BE
:100FB0008101022944D00228C6F8608004D0FFF7DE
:100FC000EDFB044638E034E0FFF7E8FB074604E0B9
:100FD000FFF7E4FBC01B02282BD828688001F7D458
:100FE000206AB0F5803F05D16868A16820F4003020
:100FF00008436860D4E908010843696821F4741162
:1010000008436860C6F86090FFF7C8FB044606E036
:1010100025E000BFFFF7C2FB001B022809D82868A3
:101020008001F7D51BE000BFFFF7B8FB001B0228CB
:1010300002D90320BDE8F88F28688001F4D40EE0BF
:101040000128F7D06868226A00F48031914204D107
:10105000616A00F47010884201D00120EAE70020A4
:10106000E8E70000001002400000424280044242D3
:101070000C0000200070004070B5040009D0606AC8
:10108000002540B125616561A56294F8510040B129
:101090000CE0012070BD6068B0F5827FF4D0E5619E
:1010A000F2E784F85050204600F040F8022084F81F
:1010B00051002068016821F040010160A088218969
:1010C00000F4827001F404410843A18901F4006135
:1010D0000843217C01F002010843217D01F0010158
:1010E0000843218B01F400710843217F01F038018E
:1010F000084394F8201001F080010843218D01F489
:101100000051084321680860A069042101EA1040E9
:10111000216848602068C16921F40061C16165658A
:10112000012084F85100002070BD000030B585B06A
:1011300000240094019402940394006814498842A6
:1011400023D11448816941F480518161816901F49E
:1011500080510491816941F00401816180690E4DE3
:1011600000F004000490A0200090022001900320D1
:10117000039069462846FFF71BFA4020CDE900049A
:10118000694628460294FFF713FA05B030BD000007
:1011900000300140001002400008014010B5401E20
:1011A000B0F1807F01D3012010BD4FF0E0246061D9
:1011B0000F21601700F0A7FC0020A061072020612C
:1011C000002010BD70B590F83C20012A26D00124E3
:1011D00080F83C40022280F83D2003685A689D68F0
:1011E00022F070060A6832435A600D4B02689A4238
:1011F00008D0B2F1804F05D00A4B9A4202D00A4B78
:101200009A4204D1496825F080031943916080F81F
:101210003D40002180F83C10084670BD022070BDA2
:10122000002C0140000400400008004030B585B0AB
:101230000021009101910291039103681C4902224F
:101240001C481D4CB3F1804F1BD01C4DAB4216D136
:101250008B6943F008038B618969039201F00801EF
:1012600004911021CDE900126946FFF7A1F96068E9
:1012700020F4406040F0E06040F40060606005B041
:1012800030BD8B6943F008038B618969039201F0DB
:10129000080104910821CDE900126946FFF788F999
:1012A000606820F4407040F0E06040F48070E5E752
:1012B00000100240000C014000000140000400400A
:1012C00070B5044690F83C0000260D4601280FD06A
:1012D000012084F83C006AB1042A1DD0082A2FD0CE
:1012E0000C2A3FD00126002084F83C00304670BD17
:1012F000022070BD206800F007FB2068816941F082
:10130000080181612068816921F004018161206800
:1013100081692A69114311E0206800F01DFB2068F3
:10132000816941F4006181612068816921F48061F3
:101330008161206881692A6941EA02218161D2E7DD
:10134000206800F035FB2068C16941F00801C161E7
:101350002068C16921F00401C1612068C1692A695E
:10136000114311E0206800F04FFB2068C16941F48F
:101370000061C1612068C16921F48061C161206898
:10138000C1692A6941EA0221C161ACE710B50400D4
:1013900003D094F83D0010B107E0012010BD0020FB
:1013A00084F83C00204600F01FF8022084F83D003D
:1013B000211D206800F05EFA012084F8460084F8C0
:1013C0003E0084F83F0084F8400084F8410084F82F
:1013D000420084F8430084F8440084F8450084F80F
:1013E0003D00002010BD000008B501680B48B1F1B8
:1013F000804F0BD00A4A914207D1C16941F00201E6
:10140000C161C06900F00200009008BDC16941F0EF
:101410000101C161C06900F00100F5E70010024060
:101420000004004010B50446022249B104290ED040
:10143000082913D094F84100012816D0012010BDCE
:1014400094F83E000128F9D184F83E200FE094F88A
:101450003F000128F2D184F83F2008E094F84000D2
:101460000128EBD184F8402001E084F841200122DA
:10147000206800F03BFA0F492068884203D1426C93
:1014800042F4004242642068884208D0B0F1804FA4
:1014900005D00949884202D00849884204D18168B0
:1014A00001F00701062903D0016841F00101016044
:1014B000002010BD002C0140000400400008004046
:1014C00070B5040004D094F84100002510B106E086
:1014D000012070BD84F84050204600F023F82420FD
:1014E00084F841002068C16821F40051C1602046A1
:1014F00000F0ACFA2068016921F490410161206894
:10150000416921F02A0141612068C16841F400511C
:10151000C1606564202084F8410084F8420065635E
:10152000002070BD30B585B0002400940194029471
:1015300003940068174988422AD11748816941F409
:1015400080418161816901F480410491816941F0A8
:10155000080181618069114D00F00800049040206D
:101560000090022001900320039069462846FFF76F
:101570001FF88020CDE90004694628460294FFF751
:1015800017F80748416841F0E06141F0040141600B
:1015900005B030BD0038014000100240000C014091
:1015A00000000140FEE700003EB500241048009412
:1015B000019402940D49846001600473047501254F
:1015C00005614FF460214460C161FEF70DFF08B171
:1015D00072B6FEE7CDE90045694605480294FEF77C
:1015E00085FE002801D072B6FEE73EBD0024014012
:1015F000100000203EB5002410480094019402948D
:101600000D498460016004730475012505614FF480
:1016100060214460C161FEF7E7FE08B172B6FEE7E3
:101620000095CDE9015469460448FEF75FFE0028A5
:1016300001D072B6FEE73EBD002801404000002008
:1016400070B586B00024214800940194029403945C
:10165000816941F020018161816901F020010491DB
:10166000816941F004018161816901F00401049103
:10167000816941F0080181618069154E00F0080020
:101680000490002218213046FFF782F818200090BD
:101690000120CDE901040220039069463046FEF79F
:1016A00087FF0C4D4FF40040CDE9000569460294D8
:1016B0000948FEF77DFF4FF4E050CDE9000569468B
:1016C00002943046FEF774FF06B070BD0010024071
:1016D0000008014000001110000C01400E4810B538
:1016E0000C4901604FF48271416000218160C1604A
:1016F0004FF400720161C0E90512C16101624162EB
:1017000081620A21C162FFF7B7FC002801D072B6DE
:10171000FEE710BD00300140C400002010B58AB0C3
:10172000002407941C2168460894FEF74DFD1648D6
:101730004FF0804101604FF4FA51C0E90114632178
:10174000C0E9031480218161FFF720FE08B172B661
:10175000FEE7079407A90C480894FFF733FD08B18A
:1017600072B6FEE76020CDE90004029404226946C7
:1017700005480494FFF7A4FD08B172B6FEE70248DD
:10178000FFF754FD0AB010BD1C01002010B58AB04F
:10179000002407941C2168460894FEF715FD16489E
:1017A0001449C0E900144FF6FF71C0E90241046119
:1017B0008461FFF7EBFD08B172B6FEE7079407A955
:1017C0000D480894FFF7FEFC08B172B6FEE76020F2
:1017D000CDE9000402940022694607480494FFF70B
:1017E0006FFD08B172B6FEE70348FFF71FFD0AB0B0
:1017F00010BD00000004004064010020FEE7FEE789
:1018000070477047FFF7CCB830B593B028216846D1
:10181000FEF7DAFC14210AA8FEF7D6FC002401200A
:101820000F940225049000951020119405901094B7
:10183000129407946846FFF78FFA08B172B6FEE774
:101840000F20CDE90A040C940D9400210AA80E94EF
:10185000FFF7A6F908B172B6FEE70FA80F9511942D
:10186000FFF728F9002801D072B6FEE713B030BDAB
:1018700070470000F0B50268194B1A4C1A4D4FF032
:101880008047984205D0B84203D0A04201D0A84278
:1018900003D122F070064A683243984205D0B8421C
:1018A00003D0A04201D0A84203D122F44074CA68F8
:1018B00022434C6922F08002224302608A68C2629D
:1018C0000A688262984201D109690163012141617C
:1018D0000169C90703D0016921F001010161F0BD6F
:1018E000002C0140000400400008004010B501F049
:1018F0001F030121046A99408C430462016A9A40E3
:101900001143016210BD000030B5036A026A22F083
:10191000010202624268846924F073050C682C435A
:1019200023F002058B682B430A4DA8420BD123F00C
:101930000805CB6822F440722B434D6923F0040361
:1019400015438A692A43426084614968416303629E
:1019500030BD0000002C014030B5026A036A23F05C
:1019600010030362436884690D6824F4E64444EA82
:1019700005248D6822F0200242EA05120B4DA84290
:101980000ED1CD6822F0800242EA05124D6923F49F
:10199000406343EA85038D6922F0400243EA8503F0
:1019A0004360846149688163026230BD002C01405C
:1019B00030B5036A026A22F4807202624268C46926
:1019C00023F4007324F073050C682C438D6843EAFC
:1019D00005230C4DA8420ED1CD6823F4006343EAE1
:1019E00005234D6922F4405242EA05128D6923F421
:1019F000806342EA05124260C4614968C1630362C0
:101A000030BD0000002C014030B5046A026A22F4A7
:101A1000805202624268C3690D6823F4E64343EAD8
:101A200005238D6824F4005444EA0534064DA84289
:101A300004D14D6922F4804242EA85124260C361BA
:101A400049680164046230BD002C014070B5044651
:101A500000680169E26821F4405111430161216984
:101A6000A0680843616908432168CA6841F20C63B1
:101A70009A430243CA6020684169A26921F4407117
:101A8000114341611E492068884202D1FFF72EF9B7
:101A900001E0FFF71BF900EBC00101EB00126068E9
:101AA00064218000B2FBF0F3B3FBF1F36FF0180692
:101AB0007343B2FBF0F5B2FBF0F605EB830532237E
:101AC00003EB0515B5FBF1F5B6FBF1F605F0F005F6
:101AD00005EB0615B2FBF0F6B2FBF0F0B0FBF1F04F
:101AE0006FF01802504306EB800003EB0010B0FBD0
:101AF000F1F0216800F00F002844886070BD0000FC
:101B000000380140FEE70907090E002804DB00F158
:101B1000E02080F80014704700F00F0000F1E02092
:101B200080F8141D704700000025FEF741FFFFF705
:101B30006BFEFFF785FDFFF737FDFFF75BFD1F48E5
:101B40001D49002401601E49C0E901144FF4804181
:101B5000C0E9034144618461C4610462FEF724FE6C
:101B600008B172B6FEE7FFF7B9FDFFF7D7FDFFF743
:101B70000DFE1548134901604FF4E131C0E901142D
:101B80000C21C460C0E904418461C461FFF798FC82
:101B900008B172B6FEE70C4804219038FFF742FC0A
:101BA000094C903C6D1C206885636420FEF7EEFCB8
:101BB000642DF7D10025F5E70054004070000020A7
:101BC000A086010000380140AC01002001020203A0
:101BD0000405060708090A0B0C0D0E0F1010000073
:101BE00000000000000001020304060708090000CD
:101BF0000000010203040000181C0008000000207F
:101C00001000000028010008281C00081000002017
:101C10004808000044010008010000001000000016
:081C20000000000000127A0030
:04000005080000ED02
:00000001FF
